S01900004C45442073657175656E63652056332E302E73726563B6
S11300000C9432000C9490030C94B9030C94E20306
S11300100C944F000C944F000C944F000C944F0020
S11300200C944F000C944F000C944F000C94210539
S11300300C944F000C944F000C944F000C944F0000
S11300400C944F000C944F000C944F000C944F00F0
S11300500C944F009D00AE00BF00D000E100F20000
S11300600301140111241FBECFE5D8E0DEBFCDBFCC
S113007010E0A0E6B0E0E0E2FEE002C005900D92E0
S1130080AA36B107D9F720E0AAE6B0E001C01D9274
S1130090A438B207E1F70E94D9010C940E070C941E
S11300A0000080916B00873020F48F5F80936B0099
S11300B0089510926B00089580916B00843030F4A1
S11300C080916A008F5F80936A00089510926A009D
S11300D008950F931F938091740090917500A091DF
S11300E07600B09177000196A11DB11D8093740034
S11300F090937500A0937600B093770000917800F8
S11301001091790020917A0030917B00801791073B
S1130110A207B30709F099C08091800090918100F3
S1130120A0918200B09183008830910508F0B6C098
S1130130FC01E65DFF4F0C94080760E080E00E943C
S1130140D50161E080E00E94D50162E080E00E9478
S1130150D50163E080E00E94D501A0C060E080E0AA
S11301600E94D10161E080E00E94D50162E080E05C
S11301700E94D50163E080E00E94D5018FC060E059
S113018080E00E94D10161E080E00E94D10162E040
S113019080E00E94D50163E080E00E94D5017EC02A
S11301A060E080E00E94D10161E080E00E94D10122
S11301B062E080E00E94D10163E080E00E94D5010A
S11301C06DC060E080E00E94D10161E080E00E94A7
S11301D0D10162E080E00E94D10163E080E00E94EE
S11301E0D1015CC060E080E00E94D50161E080E064
S11301F00E94D10162E080E00E94D10163E080E0CE
S11302000E94D1014BC060E080E00E94D50161E012
S113021080E00E94D50162E080E00E94D10163E0A9
S113022080E00E94D1013AC060E080E00E94D501E4
S113023061E080E00E94D50162E080E00E94D50187
S113024063E080E00E94D10129C040917C0050917C
S11302507D0060917E0070917F00400F511F621FEE
S1130260731F84179507A607B707C1F460E080E001
S11302700E94D50161E080E00E94D50162E080E047
S11302800E94D50163E080E00E94D50110927400C1
S113029010927500109276001092770086E00E940A
S11302A09D041F910F910895CF93DF9362E083E043
S11302B00E94C901C82F811145C063E083E00E94F8
S11302C0C901D82F811147C062E086E00E946E0305
S11302D0C82F811139C081E590E00E94860362E055
S11302E087E00E946E03D82F811135C08CE590E021
S11302F00E948B0366E080E00E940B04C82F8111EA
S113030025C089E690E00E941C0560E080E00E9420
S1130310CD01D82F81111FC061E080E00E94CD0182
S1130320C82F811115C062E080E00E94CD01D82F52
S1130330811111C063E080E00E94CD0181110AC0E7
S1130340C1E009C0C0E007C0CD2F05C0CD2F03C058
S1130350CD2F01C0CD2F81E0C11101C080E0DF911C
S1130360CF910895E0916A00F0E0EE0FFF1FE05A8C
S1130370FF4F80810E942704E0916A00F0E0EE0FB5
S1130380FF1FE05AFF4F60916B0080810E94A00420
S1130390F3CF40E00E94F101089541E00E94F10191
S11303A0089541E00E947E02089540E00E947E028A
S11303B008950E945401811111C060E080E00E9400
S11303C0D10161E080E00E94D10162E080E00E94FE
S11303D0D10163E080E00E94D101EFCF0E94B2011D
S11303E0FDCF683008F07EC0813029F138F08230CA
S11303F009F43EC0833009F458C076C0413061F43A
S11304002AB381E090E002C0880F991F6A95E2F751
S1130410822B8ABB80E00895411168C02AB381E031
S113042090E002C0880F991F6A95E2F780958223B5
S11304308ABB80E00895413061F427B381E090E005
S113044002C0880F991F6A95E2F7822B87BB80E070
S1130450089541114DC027B381E090E002C0880F98
S1130460991F6A95E2F78095822387BB80E00895FF
S1130470413061F424B381E090E002C0880F991FF9
S11304806A95E2F7822B84BB80E00895411132C063
S113049024B381E090E002C0880F991F6A95E2F7C7
S11304A08095822384BB80E00895413061F421B3B8
S11304B081E090E002C0880F991F6A95E2F7822BD1
S11304C081BB80E00895411117C021B381E090E021
S11304D002C0880F991F6A95E2F78095822381BB39
S11304E080E0089582EF089581EF089580EF0895E4
S11304F080EF089580EF089580EF0895683008F044
S11305007EC0813029F138F0823009F43EC0833056
S113051009F458C076C0413061F42BB381E090E017
S113052002C0880F991F6A95E2F7822B8BBB80E08B
S11305300895411168C02BB381E090E002C0880F98
S1130540991F6A95E2F7809582238BBB80E008951A
S1130550413061F428B381E090E002C0880F991F14
S11305606A95E2F7822B88BB80E0089541114DC063
S113057028B381E090E002C0880F991F6A95E2F7E2
S11305808095822388BB80E00895413061F425B3CF
S113059081E090E002C0880F991F6A95E2F7822BF0
S11305A085BB80E00895411132C025B381E090E01D
S11305B002C0880F991F6A95E2F78095822385BB54
S11305C080E00895413061F422B381E090E002C0FC
S11305D0880F991F6A95E2F7822B82BB80E0089509
S11305E0411117C022B381E090E002C0880F991F27
S11305F06A95E2F78095822382BB80E0089582EFBA
S1130600089581EF089583EF089583EF089583EFAC
S1130610089583EF08958FB780688FBF089586305B
S113062029F08730B9F08530B9F528C0623041F43B
S113063085B7826085BF85B7816085BF80E00895F6
S1130640613061F585B7826085BF85B78E7F85BFD0
S113065080E00895623041F485B7886085BF85B72E
S1130660846085BF80E008956130D1F485B78860E7
S113067085BF85B78B7F85BF80E00895613029F4FD
S113068084B7806484BF80E0089561110BC084B78F
S11306908B7F84BF80E0089580EE089581EE0895F5
S11306A081EE089581EE0895863041F48BB780641D
S11306B08BBF8AB780648ABF80E00895873029F4AD
S11306C08BB780688BBF80E00895853029F48BB7A1
S11306D080628BBF80E0089580EE0895CF93DF930E
S11306E0C82FD62F0E940B036D2F8C2F0E940F034F
S11306F0811106C08C2F0E945403811103C003C0D2
S113070081EE01C082EEDF91CF9108959093710044
S113071080937000089590936F0080936E00089505
S11307201F920F920FB60F9211242F933F934F9362
S11307305F936F937F938F939F93AF93BF93EF9345
S1130740FF93E0917000F0917100309709F00995E2
S1130750FF91EF91BF91AF919F918F917F916F9195
S11307605F914F913F912F910F900FBE0F901F906B
S113077018951F920F920FB60F9211242F933F9347
S11307804F935F936F937F938F939F93AF93BF9395
S1130790EF93FF93E0916E00F0916F00309709F0B2
S11307A00995FF91EF91BF91AF919F918F917F91A7
S11307B06F915F914F913F912F910F900FBE0F90CA
S11307C01F9018951F920F920FB60F9211242F931A
S11307D03F934F935F936F937F938F939F93AF93C5
S11307E0BF93EF93FF93E0916C00F0916D0030970D
S11307F009F00995FF91EF91BF91AF919F918F916E
S11308007F916F915F914F913F912F910F900FBE08
S11308100F901F901895813360F483B713BE83B78C
S113082083BF8FB780688FBF89B7816089BF80E03D
S113083001C080EE62BF08959FEF980F953028F4B1
S113084093B7892B83BF80E0089582EE0895CF92F9
S1130850DF92EF92FF92CF93853608F067C0C82FDE
S1130860682F70E080E090E00E94EB0520E030E02B
S113087048EC52E40E944A0520E030E04AE754E4A0
S11308800E94790620E030E04AE754E40E947906A9
S11308900E94BC050F2EFAEFCF2ED12CE12CF12CA7
S11308A0F02DA70196010E94E60620937C00309368
S11308B07D0040937E0050937F0064E670E06C1BE3
S11308C07109072E000C880B990B0E94ED0520E09E
S11308D030E048EC52E40E944A0520E030E04AE768
S11308E054E40E94790620E030E04AE754E40E9490
S11308F079060E94BC05A70196010E94E606209392
S113090078003093790040937A0050937B001092E2
S1130910740010927500109276001092770086E0B1
S113092082BF82E00E941C0480E001C083EECF916C
S1130930FF90EF90DF90CF90089582BF80E00895FC
S1130940CF92DF92EF92FF92CF93DF93683070F4EF
S1130950462F50E060E070E04093800050938100A7
S11309606093820070938300D0E001C0D4EE85369A
S113097008F059C0C82F682F70E080E090E00E9412
S1130980EB0520E030E048EC52E40E944A0520E008
S113099030E04AE754E40E94790620E030E04AE778
S11309A054E40E9479060E94BC050F2EFAEFCF2E64
S11309B0D12CE12CF12CF02DA70196010E94E60622
S11309C020937C0030937D0040937E0050937F0001
S11309D064E670E06C1B7109072E000C880B990B00
S11309E00E94ED0520E030E048EC52E40E944A0504
S11309F020E030E04AE754E40E94790620E030E049
S1130A004AE754E40E9479060E94BC05A7019601B6
S1130A100E94E606209378003093790040937A0090
S1130A2050937B0001C0D3EE8D2FDF91CF91FF90C7
S1130A30EF90DF90CF9008959093730080937200AD
S1130A4008951F920F920FB60F9211242F933F9384
S1130A504F935F936F937F938F939F93AF93BF93C2
S1130A60EF93FF93E0917200F0917300309709F0D7
S1130A700995FF91EF91BF91AF919F918F917F91D4
S1130A806F915F914F913F912F910F900FBE0F90F7
S1130A901F9018950E945E050C943F060E9438062C
S1130AA058F00E94310640F029F45F3F29F00C947D
S1130AB0280651110C9473060C942E060E945006BD
S1130AC068F39923B1F3552391F3951B550BBB2779
S1130AD0AA2762177307840738F09F5F5F4F220FBE
S1130AE0331F441FAA1FA9F335D00E2E3AF0E0E8B5
S1130AF032D091505040E695001CCAF72BD0FE2FFF
S1130B0029D0660F771F881FBB1F26173707480792
S1130B10AB07B0E809F0BB0B802DBF01FF2793584A
S1130B205F4F3AF09E3F510578F00C9428060C94E0
S1130B3073065F3FE4F3983ED4F386957795679503
S1130B40B795F7959F5FC9F7880F911D969587957F
S1130B5097F90895E1E0660F771F881FBB1F62179E
S1130B6073078407BA0720F0621B730B840BBA0B5C
S1130B70EE1F88F7E09508950E94580688F09F5765
S1130B8098F0B92F9927B751B0F0E1F0660F771FAD
S1130B90881F991F1AF0BA95C9F714C0B13091F0A3
S1130BA00E947206B1E008950C947206672F782FA4
S1130BB08827B85F39F0B93FCCF386957795679568
S1130BC0B395D9F73EF490958095709561957F4FD4
S1130BD08F4F9F4F0895E89409C097FB3EF490957A
S1130BE08095709561957F4F8F4F9F4F9923A9F002
S1130BF0F92F96E9BB279395F69587957795679591
S1130C00B795F111F8CFFAF4BB0F11F460FF1BC0D4
S1130C106F5F7F4F8F4F9F4F16C0882311F096E967
S1130C2011C0772321F09EE8872F762F05C0662315
S1130C3071F096E8862F70E060E02AF09A95660FCE
S1130C40771F881FDAF7880F9695879597F9089587
S1130C5097F99F6780E870E060E008959FEF80EC6B
S1130C60089500240A94161617061806090608950E
S1130C7000240A9412161306140605060895092E74
S1130C800394000C11F4882352F0BB0F40F4BF2BE3
S1130C9011F460FF04C06F5F7F4F8F4F9F4F089523
S1130CA057FD9058440F551F59F05F3F71F0479519
S1130CB0880F97FB991F61F09F3F79F087950895FE
S1130CC0121613061406551FF2CF4695F1DF08C01D
S1130CD0161617061806991FF1CF8695710561053A
S1130CE008940895E894BB2766277727CB0197F9E2
S1130CF008950E948C060C943F060E94310638F039
S1130D000E94380620F0952311F00C9428060C94C8
S1130D102E0611240C9473060E94500670F3959FBE
S1130D20C1F3950F50E0551F629FF001729FBB27DE
S1130D30F00DB11D639FAA27F00DB11DAA1F649F7A
S1130D406627B00DA11D661F829F2227B00DA11D2D
S1130D50621F739FB00DA11D621F839FA00D611DB3
S1130D60221F749F3327A00D611D231F849F600DD4
S1130D70211D822F762F6A2F11249F5750409AF0FD
S1130D80F1F088234AF0EE0FFF1FBB1F661F771F89
S1130D90881F91505040A9F79E3F510580F00C9454
S1130DA028060C9473065F3FE4F3983ED4F38695CB
S1130DB077956795B795F795E7959F5FC1F7FE2BF4
S1130DC0880F911D9695879597F90895A1E21A2E9B
S1130DD0AA1BBB1BFD010DC0AA1FBB1FEE1FFF1FDB
S1130DE0A217B307E407F50720F0A21BB30BE40B2B
S1130DF0F50B661F771F881F991F1A9469F7609572
S1130E007095809590959B01AC01BD01CF0108952B
S1130E10EE0FFF1F0590F491E02D0994F894FFCF95
S10D0E200A0014001E003200500006
S9030000FC
