S01900004C45445F73657175656E63655F56312E302E737265633A
S11300000C9432000C9444000C9444000C9444006E
S11300100C9444000C9444000C9444000C9444004C
S11300200C9444000C9444000C9444000C9444003C
S11300300C9444000C9444000C9444000C9444002C
S11300400C9444000C9444000C9444000C9444001C
S11300500C9444009200A300A800AD00B200B700C5
S1130060BC00C10011241FBECFE5D8E0DEBFCDBF68
S113007020E0A0E6B0E001C01D92A136B207E1F78E
S11300800E94DC000C9478020C94000060E080E094
S11300900E94D00061E080E00E94D00062E080E035
S11300A00E94D00063E080E00E94D00066E083E01C
S11300B00E94C9000895CF93DF931F92CDB7DEB796
S11300C0AE014F5F5F4F66E083E00E94CD0007C042
S11300D0AE014F5F5F4F66E083E00E94CD008981EF
S11300E08823B1F307C0AE014F5F5F4F66E083E042
S11300F00E94CD0089818111F6CF809160008F5FCD
S113010080936000883011F410926000E0916000E8
S11301108E2F90E088309105C0F5FC01E65DFF4F1D
S11301200C94720260E080E00E94D80061E080E0FC
S11301300E94D80062E080E00E94D80063E080E082
S11301400E94D80022C060E080E00E94D4001DC05C
S113015061E080E00E94D40018C062E080E00E9468
S1130160D40013C063E080E00E94D4000EC060E0BD
S113017080E00E94D80009C061E080E00E94D800BD
S113018004C062E080E00E94D8000F90DF91CF911C
S1130190089540E00E94E10008950E94F601089548
S11301A041E00E94E100089541E00E946901089540
S11301B040E00E94690108950E9446000E945B008D
S11301C0FDCF813029F138F0823009F43EC083300C
S11301D009F458C074C0413061F42AB381E090E05E
S11301E002C0880F991F6A95E2F7822B8ABB86EFBB
S11301F00895411166C02AB381E090E002C0880FDF
S1130200991F6A95E2F7809582238ABB86EF089549
S1130210413061F427B381E090E002C0880F991F58
S11302206A95E2F7822B87BB86EF089541114BC094
S113023027B381E090E002C0880F991F6A95E2F726
S11302408095822387BB86EF0895413061F424B3FF
S113025081E090E002C0880F991F6A95E2F7822B33
S113026084BB86EF0895411130C024B381E090E04F
S113027002C0880F991F6A95E2F78095822384BB98
S113028086EF0895413061F421B381E090E002C02B
S1130290880F991F6A95E2F7822B81BB86EF089538
S11302A0411115C021B381E090E002C0880F991F6D
S11302B06A95E2F78095822381BB86EF089581EFEA
S11302C0089580EF089580EF089580EF089580EFFA
S11302D00895683008F07EC0813029F138F082300A
S11302E009F43EC0833009F458C076C0413061F44B
S11302F02BB381E090E002C0880F991F6A95E2F762
S1130300822B8BBB86EF0895411168C02BB381E02B
S113031090E002C0880F991F6A95E2F780958223C6
S11303208BBB86EF0895413061F428B381E090E0FF
S113033002C0880F991F6A95E2F7822B88BB86EF6B
S1130340089541114DC028B381E090E002C0880FA8
S1130350991F6A95E2F78095822388BB86EF0895FA
S1130360413061F425B381E090E002C0880F991F09
S11303706A95E2F7822B85BB86EF0895411132C05E
S113038025B381E090E002C0880F991F6A95E2F7D7
S11303908095822385BB86EF0895413061F422B3B2
S11303A081E090E002C0880F991F6A95E2F7822BE2
S11303B082BB86EF0895411117C022B381E090E01B
S11303C002C0880F991F6A95E2F78095822382BB49
S11303D086EF089582EF089581EF089583EF0895DD
S11303E083EF089583EF089583EF0895683008F04C
S11303F075C0813011F130F08230D1F1833009F4CD
S113040052C06EC079B381E090E09C01062E02C018
S1130410220F331F0A94E2F7872F90E0822393235D
S113042002C0959587956A95E2F721E0892B09F436
S113043020E0FA01208386EF089576B381E090E00E
S11304409C01062E02C0220F331F0A94E2F7872F65
S113045090E08223932302C0959587956A95E2F7ED
S113046021E0892B09F420E0FA01208386EF089526
S113047073B381E090E09C01062E02C0220F331F6B
S11304800A94E2F7872F90E08223932302C0959584
S113049087956A95E2F721E0892B09F420E0FA01B7
S11304A0208386EF089570B381E090E09C01062ECE
S11304B002C0220F331F0A94E2F7872F90E08223B1
S11304C0932302C0959587956A95E2F721E0892BDD
S11304D009F420E0FA01208386EF089582EF08955D
S11304E081EF0895EE0FFF1F0590F491E02D09941C
S10704F0F894FFCFAA
S9030000FC
