S01900004C45442073657175656E63652056332E302E73726563B6
S11300000C9432000C941C030C9445030C946E0362
S11300100C944F000C944F000C944F000C944F0020
S11300200C944F000C944F000C944F000C94AD04AE
S11300300C944F000C944F000C944F000C944F0000
S11300400C944F000C944F000C944F000C944F00F0
S11300500C944F009D00AE00BF00D000E100F20000
S11300600301140111241FBECFE5D8E0DEBFCDBFCC
S113007010E0A0E6B0E0E8E3FDE002C005900D92D8
S1130080AA36B107D9F720E0AAE6B0E001C01D9274
S1130090A438B207E1F70E9498010C949A060C94D4
S11300A0000080916B00873020F48F5F80936B0099
S11300B0089510926B00089580916B00843030F4A1
S11300C080916A008F5F80936A00089510926A009D
S11300D008950F931F938091740090917500A091DF
S11300E07600B09177000196A11DB11D8093740034
S11300F090937500A0937600B093770000917800F8
S11301001091790020917A0030917B00801791073B
S1130110A207B30709F099C08091800090918100F3
S1130120A0918200B09183008830910508F0B6C098
S1130130FC01E65DFF4F0C94940660E080E00E94B1
S1130140940161E080E00E94940162E080E00E94FA
S1130150940163E080E00E949401A0C060E080E02C
S11301600E94900161E080E00E94940162E080E0DE
S11301700E94940163E080E00E9494018FC060E0DB
S113018080E00E94900161E080E00E94900162E0C2
S113019080E00E94940163E080E00E9494017EC0AC
S11301A060E080E00E94900161E080E00E949001A4
S11301B062E080E00E94900163E080E00E9494018C
S11301C06DC060E080E00E94900161E080E00E94E8
S11301D0900162E080E00E94900163E080E00E9470
S11301E090015CC060E080E00E94940161E080E0E6
S11301F00E94900162E080E00E94900163E080E050
S11302000E9490014BC060E080E00E94940161E094
S113021080E00E94940162E080E00E94900163E02B
S113022080E00E9490013AC060E080E00E94940166
S113023061E080E00E94940162E080E00E94940109
S113024063E080E00E94900129C040917C005091BD
S11302507D0060917E0070917F00400F511F621FEE
S1130260731F84179507A607B707C1F460E080E001
S11302700E94940161E080E00E94940162E080E0C9
S11302800E94940163E080E00E9494011092740043
S113029010927500109276001092770086E00E940A
S11302A029041F910F91089562E084E40E948C0157
S11302B063E084E40E948C0162E086E00E94020311
S11302C062E087E00E94020381E590E00E9412034D
S11302D08CE590E00E94170366E080E00E9497039B
S11302E089E690E00E94A8040895E0916A00F0E095
S11302F0EE0FFF1FE05AFF4F80810E94B303E0918D
S11303006A00F0E0EE0FFF1FE05AFF4F60916B00B0
S113031080810E942C04F3CF40E00E949D01089547
S113032041E00E942502089540E00E9425020895BC
S11303300E9454010E947501FDCF813029F138F0EB
S1130340823009F43EC0833009F458C074C041308F
S113035061F42AB381E090E002C0880F991F6A9586
S1130360E2F7822B8ABB80E00895411166C02AB36C
S113037081E090E002C0880F991F6A95E2F78095AA
S113038082238ABB80E00895413061F427B381E081
S113039090E002C0880F991F6A95E2F7822B87BB11
S11303A080E0089541114BC027B381E090E002C082
S11303B0880F991F6A95E2F78095822387BB80E0B6
S11303C00895413061F424B381E090E002C0880FC5
S11303D0991F6A95E2F7822B84BB80E0089541114E
S11303E030C024B381E090E002C0880F991F6A9561
S11303F0E2F78095822384BB80E00895413061F464
S113040021B381E090E002C0880F991F6A95E2F75A
S1130410822B81BB80E00895411115C021B381E096
S113042090E002C0880F991F6A95E2F780958223B5
S113043081BB80E0089581EF089580EF089580EFF7
S1130440089580EF089580EF0895683008F07EC025
S1130450813029F138F0823009F43EC0833009F448
S113046058C076C0413061F42BB381E090E002C003
S1130470880F991F6A95E2F7822B8BBB80E0089561
S1130480411168C02BB381E090E002C0880F991F2E
S11304906A95E2F7809582238BBB80E00895413012
S11304A061F428B381E090E002C0880F991F6A9537
S11304B0E2F7822B88BB80E0089541114DC028B338
S11304C081E090E002C0880F991F6A95E2F7809559
S11304D0822388BB80E00895413061F425B381E034
S11304E090E002C0880F991F6A95E2F7822B85BBC2
S11304F080E00895411132C025B381E090E002C04C
S1130500880F991F6A95E2F78095822385BB80E066
S11305100895413061F422B381E090E002C0880F75
S1130520991F6A95E2F7822B82BB80E008954111FE
S113053017C022B381E090E002C0880F991F6A952A
S1130540E2F78095822382BB80E0089582EF0895CC
S113055081EF089583EF089583EF089583EF08955D
S113056083EF08958FB780688FBF0895863029F090
S11305708730A9F0853081F524C0623039F485B71D
S1130580826085BF85B7816085BF0895613021F59C
S113059085B7826085BF85B78E7F85BF0895623039
S11305A039F485B7886085BF85B7846085BF0895B1
S11305B0613091F485B7886085BF85B78B7F85BF2F
S11305C00895613021F484B7806484BF0895611173
S11305D003C084B78B7F84BF0895863039F48BB70A
S11305E080648BBF8AB780648ABF0895873021F402
S11305F08BB780688BBF0895853019F48BB7806200
S11306008BBF0895CF93DF93C82FD62F0E94B202D9
S11306106D2F8C2F0E94B6028C2F0E94ED02DF9169
S1130620CF910895909371008093700008959093F2
S11306306F0080936E0008951F920F920FB60F9271
S113064011242F933F934F935F936F937F938F93D3
S11306509F93AF93BF93EF93FF93E0917000F0915A
S11306607100309709F00995FF91EF91BF91AF9117
S11306709F918F917F916F915F914F913F912F91B6
S11306800F900FBE0F901F9018951F920F920FB6E8
S11306900F9211242F933F934F935F936F937F9304
S11306A08F939F93AF93BF93EF93FF93E0916E006B
S11306B0F0916F00309709F00995FF91EF91BF9188
S11306C0AF919F918F917F916F915F914F913F91E6
S11306D02F910F900FBE0F901F9018951F920F929D
S11306E00FB60F9211242F933F934F935F936F9301
S11306F07F938F939F93AF93BF93EF93FF93E09177
S11307006C00F0916D00309709F00995FF91EF911D
S1130710BF91AF919F918F917F916F915F914F9115
S11307203F912F910F900FBE0F901F90189581331A
S113073060F483B713BE83B783BF8FB780688FBF5E
S113074089B7816089BF80E001C080EE62BF0895EF
S11307509FEF980F953028F493B7892B83BF80E0DF
S1130760089582EE0895CF92DF92EF92FF92CF9395
S1130770853608F067C0C82F682F70E080E090E0ED
S11307800E94770520E030E048EC52E40E94D60451
S113079020E030E04AE754E40E94050620E030E01F
S11307A04AE754E40E9405060E9448050F2EFAEF1A
S11307B0CF2ED12CE12CF12CF02DA70196010E9413
S11307C0720620937C0030937D0040937E0050930A
S11307D07F0064E670E06C1B7109072E000C880B27
S11307E0990B0E94790520E030E048EC52E40E9425
S11307F0D60420E030E04AE754E40E94050620E0F5
S113080030E04AE754E40E9405060E944805A70127
S113081096010E94720620937800309379004093E9
S11308207A0050937B00109274001092750010921D
S113083076001092770086E082BF82E00E94A803CF
S113084080E001C083EECF91FF90EF90DF90CF90D6
S1130850089582BF80E00895CF92DF92EF92FF92D5
S1130860CF93DF93683070F4462F50E060E070E07F
S113087040938000509381006093820070938300C2
S1130880D0E001C0D4EE853608F059C0C82F682FD7
S113089070E080E090E00E94770520E030E048ECD2
S11308A052E40E94D60420E030E04AE754E40E9477
S11308B0050620E030E04AE754E40E9405060E9461
S11308C048050F2EFAEFCF2ED12CE12CF12CF02D70
S11308D0A70196010E94720620937C0030937D004C
S11308E040937E0050937F0064E670E06C1B7109B6
S11308F0072E000C880B990B0E94790520E030E04C
S113090048EC52E40E94D60420E030E04AE754E484
S11309100E94050620E030E04AE754E40E94050600
S11309200E944805A70196010E9472062093780050
S11309303093790040937A0050937B0001C0D3EE4A
S11309408D2FDF91CF91FF90EF90DF90CF9008959E
S1130950909373008093720008951F920F920FB6C4
S11309600F9211242F933F934F935F936F937F9331
S11309708F939F93AF93BF93EF93FF93E091720094
S1130980F0917300309709F00995FF91EF91BF91B1
S1130990AF919F918F917F916F915F914F913F9113
S11309A02F910F900FBE0F901F9018950E94EA048C
S11309B00C94CB050E94C40558F00E94BD0540F07C
S11309C029F45F3F29F00C94B40551110C94FF05F0
S11309D00C94BA050E94DC0568F39923B1F35523FE
S11309E091F3951B550BBB27AA276217730784073E
S11309F038F09F5F5F4F220F331F441FAA1FA9F3D4
S1130A0035D00E2E3AF0E0E832D091505040E695C1
S1130A10001CCAF72BD0FE2F29D0660F771F881F22
S1130A20BB1F261737074807AB07B0E809F0BB0B15
S1130A30802DBF01FF2793585F4F3AF09E3F510529
S1130A4078F00C94B4050C94FF055F3FE4F3983EF2
S1130A50D4F3869577956795B795F7959F5FC9F712
S1130A60880F911D9695879597F90895E1E0660F93
S1130A70771F881FBB1F621773078407BA0720F00C
S1130A80621B730B840BBA0BEE1F88F7E095089575
S1130A900E94E40588F09F5798F0B92F9927B75121
S1130AA0B0F0E1F0660F771F881F991F1AF0BA950E
S1130AB0C9F714C0B13091F00E94FE05B1E0089569
S1130AC00C94FE05672F782F8827B85F39F0B93F5B
S1130AD0CCF3869577956795B395D9F73EF49095C1
S1130AE08095709561957F4F8F4F9F4F0895E8943F
S1130AF009C097FB3EF490958095709561957F4F62
S1130B008F4F9F4F9923A9F0F92F96E9BB2793950F
S1130B10F695879577956795B795F111F8CFFAF41F
S1130B20BB0F11F460FF1BC06F5F7F4F8F4F9F4F50
S1130B3016C0882311F096E911C0772321F09EE8AE
S1130B40872F762F05C0662371F096E8862F70E014
S1130B5060E02AF09A95660F771F881FDAF7880FEE
S1130B609695879597F9089597F99F6780E870E0BF
S1130B7060E008959FEF80EC089500240A9416160F
S1130B80170618060906089500240A941216130677
S1130B90140605060895092E0394000C11F4882305
S1130BA052F0BB0F40F4BF2B11F460FF04C06F5F21
S1130BB07F4F8F4F9F4F089557FD9058440F551FF7
S1130BC059F05F3F71F04795880F97FB991F61F0CB
S1130BD09F3F79F087950895121613061406551F42
S1130BE0F2CF4695F1DF08C0161617061806991FAE
S1130BF0F1CF86957105610508940895E894BB27A3
S1130C0066277727CB0197F908950E9418060C945C
S1130C10CB050E94BD0538F00E94C40520F0952341
S1130C2011F00C94B4050C94BA0511240C94FF052E
S1130C300E94DC0570F3959FC1F3950F50E0551F9A
S1130C40629FF001729FBB27F00DB11D639FAA271D
S1130C50F00DB11DAA1F649F6627B00DA11D661F6C
S1130C60829F2227B00DA11D621F739FB00DA11D8D
S1130C70621F839FA00D611D221F749F3327A00D47
S1130C80611D231F849F600D211D822F762F6A2FE3
S1130C9011249F5750409AF0F1F088234AF0EE0F48
S1130CA0FF1FBB1F661F771F881F91505040A9F775
S1130CB09E3F510580F00C94B4050C94FF055F3FF2
S1130CC0E4F3983ED4F3869577956795B795F795B1
S1130CD0E7959F5FC1F7FE2B880F911D9695879529
S1130CE097F90895A1E21A2EAA1BBB1BFD010DC0A2
S1130CF0AA1FBB1FEE1FFF1FA217B307E407F507C8
S1130D0020F0A21BB30BE40BF50B661F771F881FA3
S1130D10991F1A9469F760957095809590959B0139
S1130D20AC01BD01CF010895EE0FFF1F0590F491B2
S10B0D30E02D0994F894FFCFB3
S10D0D380A0014001E0032005000EF
S9030000FC
